:03000000020800F3
:0C080000787FE4F6D8FD758111020847EE
:0C08D9000A083F065B4F666D7D077F6FCD
:1008B900E4FDFCC3ED9FEC9E5015E4FBFA0BBB0075
:0F08C900010ABA04F8BBFBF50DBD00010C80E479
:0108D80022FD
:10088C00E4F97580FFF5A0740829F8E6F5A020803E
:10089C00F67F147E001208B93080FD09E9D3940963
:0D08AC004002E4F97F327E001208B980DAC4
:10080C0002088CE493A3F8E493A34003F68001F26E
:10081C0008DFF48029E493A3F85407240CC8C333ED
:10082C00C4540F4420C8834004F456800146F6DFBC
:10083C00E4800B01020408102040809008D9E47E6B
:10084C00019360BCA3FF543F30E509541FFEE493B1
:10085C00A360010ECF54C025E060A840B8E493A378
:10086C00FAE493A3F8E493A3C8C582C8CAC583CAA3
:10087C00F0A3C8C582C8CAC583CADFE9DEE780BE5B
:0108E5000012
:00000001FF
